{
  "_format": "hh-sol-artifact-1",
  "contractName": "Booklist",
  "sourceName": "contracts/Booklist.sol",
  "abi": [
    {
      "anonymous": false,
      "inputs": [
        {
          "indexed": true,
          "internalType": "address",
          "name": "bookRecipient",
          "type": "address"
        },
        {
          "indexed": false,
          "internalType": "uint256",
          "name": "bookId",
          "type": "uint256"
        }
      ],
      "name": "AddBook",
      "type": "event"
    },
    {
      "anonymous": false,
      "inputs": [
        {
          "indexed": false,
          "internalType": "uint256",
          "name": "bookId",
          "type": "uint256"
        },
        {
          "indexed": false,
          "internalType": "bool",
          "name": "isCompleted",
          "type": "bool"
        }
      ],
      "name": "SetFinished",
      "type": "event"
    },
    {
      "inputs": [
        {
          "internalType": "string",
          "name": "name",
          "type": "string"
        },
        {
          "internalType": "uint256",
          "name": "year",
          "type": "uint256"
        },
        {
          "internalType": "string",
          "name": "author",
          "type": "string"
        },
        {
          "internalType": "bool",
          "name": "isCompleted",
          "type": "bool"
        }
      ],
      "name": "addBook",
      "outputs": [],
      "stateMutability": "nonpayable",
      "type": "function"
    },
    {
      "inputs": [],
      "name": "getAllBooks",
      "outputs": [
        {
          "components": [
            {
              "internalType": "uint256",
              "name": "id",
              "type": "uint256"
            },
            {
              "internalType": "string",
              "name": "name",
              "type": "string"
            },
            {
              "internalType": "uint256",
              "name": "year",
              "type": "uint256"
            },
            {
              "internalType": "string",
              "name": "author",
              "type": "string"
            },
            {
              "internalType": "bool",
              "name": "isCompleted",
              "type": "bool"
            }
          ],
          "internalType": "struct Booklist.Book[]",
          "name": "",
          "type": "tuple[]"
        }
      ],
      "stateMutability": "view",
      "type": "function"
    },
    {
      "inputs": [
        {
          "internalType": "bool",
          "name": "finished",
          "type": "bool"
        }
      ],
      "name": "getBookList",
      "outputs": [
        {
          "components": [
            {
              "internalType": "uint256",
              "name": "id",
              "type": "uint256"
            },
            {
              "internalType": "string",
              "name": "name",
              "type": "string"
            },
            {
              "internalType": "uint256",
              "name": "year",
              "type": "uint256"
            },
            {
              "internalType": "string",
              "name": "author",
              "type": "string"
            },
            {
              "internalType": "bool",
              "name": "isCompleted",
              "type": "bool"
            }
          ],
          "internalType": "struct Booklist.Book[]",
          "name": "",
          "type": "tuple[]"
        }
      ],
      "stateMutability": "view",
      "type": "function"
    },
    {
      "inputs": [],
      "name": "getFinishedBook",
      "outputs": [
        {
          "components": [
            {
              "internalType": "uint256",
              "name": "id",
              "type": "uint256"
            },
            {
              "internalType": "string",
              "name": "name",
              "type": "string"
            },
            {
              "internalType": "uint256",
              "name": "year",
              "type": "uint256"
            },
            {
              "internalType": "string",
              "name": "author",
              "type": "string"
            },
            {
              "internalType": "bool",
              "name": "isCompleted",
              "type": "bool"
            }
          ],
          "internalType": "struct Booklist.Book[]",
          "name": "",
          "type": "tuple[]"
        }
      ],
      "stateMutability": "view",
      "type": "function"
    },
    {
      "inputs": [],
      "name": "getUnfinishedBook",
      "outputs": [
        {
          "components": [
            {
              "internalType": "uint256",
              "name": "id",
              "type": "uint256"
            },
            {
              "internalType": "string",
              "name": "name",
              "type": "string"
            },
            {
              "internalType": "uint256",
              "name": "year",
              "type": "uint256"
            },
            {
              "internalType": "string",
              "name": "author",
              "type": "string"
            },
            {
              "internalType": "bool",
              "name": "isCompleted",
              "type": "bool"
            }
          ],
          "internalType": "struct Booklist.Book[]",
          "name": "",
          "type": "tuple[]"
        }
      ],
      "stateMutability": "view",
      "type": "function"
    },
    {
      "inputs": [
        {
          "internalType": "uint256",
          "name": "bookId",
          "type": "uint256"
        },
        {
          "internalType": "bool",
          "name": "isCompleted",
          "type": "bool"
        }
      ],
      "name": "setCompleted",
      "outputs": [],
      "stateMutability": "nonpayable",
      "type": "function"
    }
  ],
  "bytecode": "0x608060405234801561001057600080fd5b506112f5806100206000396000f3fe608060405234801561001057600080fd5b50600436106100625760003560e01c80630cc2de1a14610067578063354528e8146100975780635cb9f4a4146100b5578063a8bbee8a146100d1578063b75b4e5a146100ef578063fb1446121461010d575b600080fd5b610081600480360381019061007c91906109b0565b610129565b60405161008e9190610bd4565b60405180910390f35b61009f6104d8565b6040516100ac9190610bd4565b60405180910390f35b6100cf60048036038101906100ca9190610c22565b61068a565b005b6100d96107a5565b6040516100e69190610bd4565b60405180910390f35b6100f76107b6565b6040516101049190610bd4565b60405180910390f35b61012760048036038101906101229190610d97565b6107c7565b005b60606000805b600080549050811015610200573373ffffffffffffffffffffffffffffffffffffffff166001600083815260200190815260200160002060009054906101000a900473ffffffffffffffffffffffffffffffffffffffff1673ffffffffffffffffffffffffffffffffffffffff161480156101df5750831515600082815481106101bc576101bb610e36565b5b906000526020600020906005020160040160009054906101000a900460ff161515145b156101f35781806101ef90610e94565b9250505b808060010191505061012f565b5060008167ffffffffffffffff81111561021d5761021c610c6c565b5b60405190808252806020026020018201604052801561025657816020015b610243610933565b81526020019060019003908161023b5790505b5090506000805b6000805490508110156104cc573373ffffffffffffffffffffffffffffffffffffffff166001600083815260200190815260200160002060009054906101000a900473ffffffffffffffffffffffffffffffffffffffff1673ffffffffffffffffffffffffffffffffffffffff1614801561030d5750851515600082815481106102ea576102e9610e36565b5b906000526020600020906005020160040160009054906101000a900460ff161515145b156104bf576000818154811061032657610325610e36565b5b90600052602060002090600502016040518060a00160405290816000820154815260200160018201805461035990610f0b565b80601f016020809104026020016040519081016040528092919081815260200182805461038590610f0b565b80156103d25780601f106103a7576101008083540402835291602001916103d2565b820191906000526020600020905b8154815290600101906020018083116103b557829003601f168201915b50505050508152602001600282015481526020016003820180546103f590610f0b565b80601f016020809104026020016040519081016040528092919081815260200182805461042190610f0b565b801561046e5780601f106104435761010080835404028352916020019161046e565b820191906000526020600020905b81548152906001019060200180831161045157829003601f168201915b505050505081526020016004820160009054906101000a900460ff1615151515815250508383815181106104a5576104a4610e36565b5b602002602001018190525081806104bb90610e94565b9250505b808060010191505061025d565b50819350505050919050565b60606000805480602002602001604051908101604052809291908181526020016000905b8282101561068157838290600052602060002090600502016040518060a00160405290816000820154815260200160018201805461053990610f0b565b80601f016020809104026020016040519081016040528092919081815260200182805461056590610f0b565b80156105b25780601f10610587576101008083540402835291602001916105b2565b820191906000526020600020905b81548152906001019060200180831161059557829003601f168201915b50505050508152602001600282015481526020016003820180546105d590610f0b565b80601f016020809104026020016040519081016040528092919081815260200182805461060190610f0b565b801561064e5780601f106106235761010080835404028352916020019161064e565b820191906000526020600020905b81548152906001019060200180831161063157829003601f168201915b505050505081526020016004820160009054906101000a900460ff161515151581525050815260200190600101906104fc565b50505050905090565b3373ffffffffffffffffffffffffffffffffffffffff166001600084815260200190815260200160002060009054906101000a900473ffffffffffffffffffffffffffffffffffffffff1673ffffffffffffffffffffffffffffffffffffffff161461072b576040517f08c379a000000000000000000000000000000000000000000000000000000000815260040161072290610fbf565b60405180910390fd5b80600083815481106107405761073f610e36565b5b906000526020600020906005020160040160006101000a81548160ff0219169083151502179055507fa4f349f92993cc89f62be8c4bead1bd7d76d2e9c4d05da59739c6e0dd75f042c8282604051610799929190610ffd565b60405180910390a15050565b60606107b16001610129565b905090565b60606107c26000610129565b905090565b60008080549050905060006040518060a001604052808381526020018781526020018681526020018581526020018415158152509050600081908060018154018082558091505060019003906000526020600020906005020160009091909190915060008201518160000155602082015181600101908161084891906111d2565b5060408201518160020155606082015181600301908161086891906111d2565b5060808201518160040160006101000a81548160ff0219169083151502179055505050336001600084815260200190815260200160002060006101000a81548173ffffffffffffffffffffffffffffffffffffffff021916908373ffffffffffffffffffffffffffffffffffffffff1602179055503373ffffffffffffffffffffffffffffffffffffffff167f10545577c692a22f651e69221c47ad4418e40434b36f4e2411bc54007aa8cbb98360405161092391906112a4565b60405180910390a2505050505050565b6040518060a00160405280600081526020016060815260200160008152602001606081526020016000151581525090565b6000604051905090565b600080fd5b600080fd5b60008115159050919050565b61098d81610978565b811461099857600080fd5b50565b6000813590506109aa81610984565b92915050565b6000602082840312156109c6576109c561096e565b5b60006109d48482850161099b565b91505092915050565b600081519050919050565b600082825260208201905092915050565b6000819050602082019050919050565b6000819050919050565b610a1c81610a09565b82525050565b600081519050919050565b600082825260208201905092915050565b60005b83811015610a5c578082015181840152602081019050610a41565b60008484015250505050565b6000601f19601f8301169050919050565b6000610a8482610a22565b610a8e8185610a2d565b9350610a9e818560208601610a3e565b610aa781610a68565b840191505092915050565b610abb81610978565b82525050565b600060a083016000830151610ad96000860182610a13565b5060208301518482036020860152610af18282610a79565b9150506040830151610b066040860182610a13565b5060608301518482036060860152610b1e8282610a79565b9150506080830151610b336080860182610ab2565b508091505092915050565b6000610b4a8383610ac1565b905092915050565b6000602082019050919050565b6000610b6a826109dd565b610b7481856109e8565b935083602082028501610b86856109f9565b8060005b85811015610bc25784840389528151610ba38582610b3e565b9450610bae83610b52565b925060208a01995050600181019050610b8a565b50829750879550505050505092915050565b60006020820190508181036000830152610bee8184610b5f565b905092915050565b610bff81610a09565b8114610c0a57600080fd5b50565b600081359050610c1c81610bf6565b92915050565b60008060408385031215610c3957610c3861096e565b5b6000610c4785828601610c0d565b9250506020610c588582860161099b565b9150509250929050565b600080fd5b600080fd5b7f4e487b7100000000000000000000000000000000000000000000000000000000600052604160045260246000fd5b610ca482610a68565b810181811067ffffffffffffffff82111715610cc357610cc2610c6c565b5b80604052505050565b6000610cd6610964565b9050610ce28282610c9b565b919050565b600067ffffffffffffffff821115610d0257610d01610c6c565b5b610d0b82610a68565b9050602081019050919050565b82818337600083830152505050565b6000610d3a610d3584610ce7565b610ccc565b905082815260208101848484011115610d5657610d55610c67565b5b610d61848285610d18565b509392505050565b600082601f830112610d7e57610d7d610c62565b5b8135610d8e848260208601610d27565b91505092915050565b60008060008060808587031215610db157610db061096e565b5b600085013567ffffffffffffffff811115610dcf57610dce610973565b5b610ddb87828801610d69565b9450506020610dec87828801610c0d565b935050604085013567ffffffffffffffff811115610e0d57610e0c610973565b5b610e1987828801610d69565b9250506060610e2a8782880161099b565b91505092959194509250565b7f4e487b7100000000000000000000000000000000000000000000000000000000600052603260045260246000fd5b7f4e487b7100000000000000000000000000000000000000000000000000000000600052601160045260246000fd5b6000610e9f82610a09565b91507fffffffffffffffffffffffffffffffffffffffffffffffffffffffffffffffff8203610ed157610ed0610e65565b5b600182019050919050565b7f4e487b7100000000000000000000000000000000000000000000000000000000600052602260045260246000fd5b60006002820490506001821680610f2357607f821691505b602082108103610f3657610f35610edc565b5b50919050565b600082825260208201905092915050565b7f43616c6c6572206973206e6f7420746865206f776e6572206f6620746865206260008201527f6f6f6b0000000000000000000000000000000000000000000000000000000000602082015250565b6000610fa9602383610f3c565b9150610fb482610f4d565b604082019050919050565b60006020820190508181036000830152610fd881610f9c565b9050919050565b610fe881610a09565b82525050565b610ff781610978565b82525050565b60006040820190506110126000830185610fdf565b61101f6020830184610fee565b9392505050565b60008190508160005260206000209050919050565b60006020601f8301049050919050565b600082821b905092915050565b6000600883026110887fffffffffffffffffffffffffffffffffffffffffffffffffffffffffffffffff8261104b565b611092868361104b565b95508019841693508086168417925050509392505050565b6000819050919050565b60006110cf6110ca6110c584610a09565b6110aa565b610a09565b9050919050565b6000819050919050565b6110e9836110b4565b6110fd6110f5826110d6565b848454611058565b825550505050565b600090565b611112611105565b61111d8184846110e0565b505050565b5b818110156111415761113660008261110a565b600181019050611123565b5050565b601f8211156111865761115781611026565b6111608461103b565b8101602085101561116f578190505b61118361117b8561103b565b830182611122565b50505b505050565b600082821c905092915050565b60006111a96000198460080261118b565b1980831691505092915050565b60006111c28383611198565b9150826002028217905092915050565b6111db82610a22565b67ffffffffffffffff8111156111f4576111f3610c6c565b5b6111fe8254610f0b565b611209828285611145565b600060209050601f83116001811461123c576000841561122a578287015190505b61123485826111b6565b86555061129c565b601f19841661124a86611026565b60005b828110156112725784890151825560018201915060208501945060208101905061124d565b8683101561128f578489015161128b601f891682611198565b8355505b6001600288020188555050505b505050505050565b60006020820190506112b96000830184610fdf565b9291505056fea26469706673582212208ae26e10fa8282a18f5263b68a6b30e950ef947303ef6ecc515fc340f3b5d3fb64736f6c63430008180033",
  "linkReferences": {},
  "deployedLinkReferences": {}
}