{
  "_format": "hh-sol-artifact-1",
  "contractName": "Smedia",
  "sourceName": "contracts/Smedia.sol",
  "abi": [
    {
      "anonymous": false,
      "inputs": [
        {
          "indexed": false,
          "internalType": "uint256",
          "name": "postId",
          "type": "uint256"
        },
        {
          "indexed": false,
          "internalType": "address",
          "name": "author",
          "type": "address"
        },
        {
          "indexed": false,
          "internalType": "string",
          "name": "content",
          "type": "string"
        },
        {
          "indexed": false,
          "internalType": "string",
          "name": "mediaHash",
          "type": "string"
        },
        {
          "indexed": false,
          "internalType": "uint256",
          "name": "tipAmount",
          "type": "uint256"
        },
        {
          "indexed": false,
          "internalType": "uint256",
          "name": "timestamp",
          "type": "uint256"
        }
      ],
      "name": "PostCreated",
      "type": "event"
    },
    {
      "anonymous": false,
      "inputs": [
        {
          "indexed": true,
          "internalType": "address",
          "name": "from",
          "type": "address"
        },
        {
          "indexed": true,
          "internalType": "address",
          "name": "to",
          "type": "address"
        },
        {
          "indexed": false,
          "internalType": "uint256",
          "name": "amount",
          "type": "uint256"
        }
      ],
      "name": "TipSent",
      "type": "event"
    },
    {
      "inputs": [
        {
          "internalType": "string",
          "name": "_content",
          "type": "string"
        },
        {
          "internalType": "string",
          "name": "_mediaHash",
          "type": "string"
        }
      ],
      "name": "createPost",
      "outputs": [],
      "stateMutability": "nonpayable",
      "type": "function"
    },
    {
      "inputs": [],
      "name": "getAllPosts",
      "outputs": [
        {
          "components": [
            {
              "internalType": "uint256",
              "name": "postId",
              "type": "uint256"
            },
            {
              "internalType": "address",
              "name": "author",
              "type": "address"
            },
            {
              "internalType": "string",
              "name": "content",
              "type": "string"
            },
            {
              "internalType": "string",
              "name": "mediaHash",
              "type": "string"
            },
            {
              "internalType": "uint256",
              "name": "tipAmount",
              "type": "uint256"
            },
            {
              "internalType": "uint256",
              "name": "timestamp",
              "type": "uint256"
            }
          ],
          "internalType": "struct Smedia.Post[]",
          "name": "",
          "type": "tuple[]"
        }
      ],
      "stateMutability": "view",
      "type": "function"
    },
    {
      "inputs": [],
      "name": "postCount",
      "outputs": [
        {
          "internalType": "uint256",
          "name": "",
          "type": "uint256"
        }
      ],
      "stateMutability": "view",
      "type": "function"
    },
    {
      "inputs": [
        {
          "internalType": "uint256",
          "name": "",
          "type": "uint256"
        }
      ],
      "name": "posts",
      "outputs": [
        {
          "internalType": "uint256",
          "name": "postId",
          "type": "uint256"
        },
        {
          "internalType": "address",
          "name": "author",
          "type": "address"
        },
        {
          "internalType": "string",
          "name": "content",
          "type": "string"
        },
        {
          "internalType": "string",
          "name": "mediaHash",
          "type": "string"
        },
        {
          "internalType": "uint256",
          "name": "tipAmount",
          "type": "uint256"
        },
        {
          "internalType": "uint256",
          "name": "timestamp",
          "type": "uint256"
        }
      ],
      "stateMutability": "view",
      "type": "function"
    },
    {
      "inputs": [
        {
          "internalType": "uint256",
          "name": "_postId",
          "type": "uint256"
        }
      ],
      "name": "tipAuthor",
      "outputs": [],
      "stateMutability": "payable",
      "type": "function"
    }
  ],
  "bytecode": "0x608060405234801561001057600080fd5b5061120e806100206000396000f3fe60806040526004361061004a5760003560e01c80630b1e7f831461004f57806317906c2e1461009157806330561100146100bc578063392338f5146100e757806395f41b4d14610110575b600080fd5b34801561005b57600080fd5b5061007660048036038101906100719190610a67565b61012c565b60405161008896959493929190610e58565b60405180910390f35b34801561009d57600080fd5b506100a6610298565b6040516100b39190610dce565b60405180910390f35b3480156100c857600080fd5b506100d161029e565b6040516100de9190610d4c565b60405180910390f35b3480156100f357600080fd5b5061010e600480360381019061010991906109fb565b610550565b005b61012a60048036038101906101259190610a67565b6106f0565b005b60006020528060005260406000206000915090508060000154908060010160009054906101000a900473ffffffffffffffffffffffffffffffffffffffff169080600201805461017b906110a8565b80601f01602080910402602001604051908101604052809291908181526020018280546101a7906110a8565b80156101f45780601f106101c9576101008083540402835291602001916101f4565b820191906000526020600020905b8154815290600101906020018083116101d757829003601f168201915b505050505090806003018054610209906110a8565b80601f0160208091040260200160405190810160405280929190818152602001828054610235906110a8565b80156102825780601f1061025757610100808354040283529160200191610282565b820191906000526020600020905b81548152906001019060200180831161026557829003601f168201915b5050505050908060040154908060050154905086565b60015481565b6060600060015467ffffffffffffffff8111156102e4577f4e487b7100000000000000000000000000000000000000000000000000000000600052604160045260246000fd5b60405190808252806020026020018201604052801561031d57816020015b61030a61088f565b8152602001906001900390816103025790505b5090506000600190505b6001548111610548576000808281526020019081526020016000206040518060c0016040529081600082015481526020016001820160009054906101000a900473ffffffffffffffffffffffffffffffffffffffff1673ffffffffffffffffffffffffffffffffffffffff1673ffffffffffffffffffffffffffffffffffffffff1681526020016002820180546103bd906110a8565b80601f01602080910402602001604051908101604052809291908181526020018280546103e9906110a8565b80156104365780601f1061040b57610100808354040283529160200191610436565b820191906000526020600020905b81548152906001019060200180831161041957829003601f168201915b5050505050815260200160038201805461044f906110a8565b80601f016020809104026020016040519081016040528092919081815260200182805461047b906110a8565b80156104c85780601f1061049d576101008083540402835291602001916104c8565b820191906000526020600020905b8154815290600101906020018083116104ab57829003601f168201915b5050505050815260200160048201548152602001600582015481525050826001836104f39190610fe4565b8151811061052a577f4e487b7100000000000000000000000000000000000000000000000000000000600052603260045260246000fd5b60200260200101819052508080610540906110da565b915050610327565b508091505090565b6000825111610594576040517f08c379a000000000000000000000000000000000000000000000000000000000815260040161058b90610d6e565b60405180910390fd5b600160008154809291906105a7906110da565b91905055506040518060c0016040528060015481526020013373ffffffffffffffffffffffffffffffffffffffff168152602001838152602001828152602001600081526020014281525060008060015481526020019081526020016000206000820151816000015560208201518160010160006101000a81548173ffffffffffffffffffffffffffffffffffffffff021916908373ffffffffffffffffffffffffffffffffffffffff16021790555060408201518160020190805190602001906106739291906108db565b5060608201518160030190805190602001906106909291906108db565b506080820151816004015560a082015181600501559050507f2136ca4fcb8c5b17636cc28dc3073894470eeaa5a2b6bafa4e8f8c9cbb887a2a6001543384846000426040516106e496959493929190610de9565b60405180910390a15050565b60008111801561070257506001548111155b610741576040517f08c379a000000000000000000000000000000000000000000000000000000000815260040161073890610d8e565b60405180910390fd5b60003411610784576040517f08c379a000000000000000000000000000000000000000000000000000000000815260040161077b90610dae565b60405180910390fd5b6000806000838152602001908152602001600020905060008160010160009054906101000a900473ffffffffffffffffffffffffffffffffffffffff1690508073ffffffffffffffffffffffffffffffffffffffff166108fc349081150290604051600060405180830381858888f19350505050158015610809573d6000803e3d6000fd5b503482600401600082825461081e9190610f8e565b925050819055508073ffffffffffffffffffffffffffffffffffffffff163373ffffffffffffffffffffffffffffffffffffffff167f944676cc66b56faa2e31ce8f94f620789dda8488308d59491fabc492867d4cec346040516108829190610dce565b60405180910390a3505050565b6040518060c0016040528060008152602001600073ffffffffffffffffffffffffffffffffffffffff168152602001606081526020016060815260200160008152602001600081525090565b8280546108e7906110a8565b90600052602060002090601f0160209004810192826109095760008555610950565b82601f1061092257805160ff1916838001178555610950565b82800160010185558215610950579182015b8281111561094f578251825591602001919060010190610934565b5b50905061095d9190610961565b5090565b5b8082111561097a576000816000905550600101610962565b5090565b600061099161098c84610ef8565b610ec7565b9050828152602081018484840111156109a957600080fd5b6109b4848285611066565b509392505050565b600082601f8301126109cd57600080fd5b81356109dd84826020860161097e565b91505092915050565b6000813590506109f5816111c1565b92915050565b60008060408385031215610a0e57600080fd5b600083013567ffffffffffffffff811115610a2857600080fd5b610a34858286016109bc565b925050602083013567ffffffffffffffff811115610a5157600080fd5b610a5d858286016109bc565b9150509250929050565b600060208284031215610a7957600080fd5b6000610a87848285016109e6565b91505092915050565b6000610a9c8383610c9e565b905092915050565b610aad81611018565b82525050565b610abc81611018565b82525050565b6000610acd82610f38565b610ad78185610f5b565b935083602082028501610ae985610f28565b8060005b85811015610b255784840389528151610b068582610a90565b9450610b1183610f4e565b925060208a01995050600181019050610aed565b50829750879550505050505092915050565b610b4081611054565b82525050565b6000610b5182610f43565b610b5b8185610f6c565b9350610b6b818560208601611075565b610b74816111b0565b840191505092915050565b6000610b8a82610f43565b610b948185610f7d565b9350610ba4818560208601611075565b610bad816111b0565b840191505092915050565b6000610bc5601683610f7d565b91507f436f6e74656e742063616e277420626520656d707479000000000000000000006000830152602082019050919050565b6000610c05600e83610f7d565b91507f496e76616c696420706f737449640000000000000000000000000000000000006000830152602082019050919050565b6000610c45602183610f7d565b91507f54697020616d6f756e74206d7573742062652067726561746572207468616e2060008301527f30000000000000000000000000000000000000000000000000000000000000006020830152604082019050919050565b600060c083016000830151610cb66000860182610d2e565b506020830151610cc96020860182610aa4565b5060408301518482036040860152610ce18282610b46565b91505060608301518482036060860152610cfb8282610b46565b9150506080830151610d106080860182610d2e565b5060a0830151610d2360a0860182610d2e565b508091505092915050565b610d378161104a565b82525050565b610d468161104a565b82525050565b60006020820190508181036000830152610d668184610ac2565b905092915050565b60006020820190508181036000830152610d8781610bb8565b9050919050565b60006020820190508181036000830152610da781610bf8565b9050919050565b60006020820190508181036000830152610dc781610c38565b9050919050565b6000602082019050610de36000830184610d3d565b92915050565b600060c082019050610dfe6000830189610d3d565b610e0b6020830188610ab3565b8181036040830152610e1d8187610b7f565b90508181036060830152610e318186610b7f565b9050610e406080830185610b37565b610e4d60a0830184610d3d565b979650505050505050565b600060c082019050610e6d6000830189610d3d565b610e7a6020830188610ab3565b8181036040830152610e8c8187610b7f565b90508181036060830152610ea08186610b7f565b9050610eaf6080830185610d3d565b610ebc60a0830184610d3d565b979650505050505050565b6000604051905081810181811067ffffffffffffffff82111715610eee57610eed611181565b5b8060405250919050565b600067ffffffffffffffff821115610f1357610f12611181565b5b601f19601f8301169050602081019050919050565b6000819050602082019050919050565b600081519050919050565b600081519050919050565b6000602082019050919050565b600082825260208201905092915050565b600082825260208201905092915050565b600082825260208201905092915050565b6000610f998261104a565b9150610fa48361104a565b9250827fffffffffffffffffffffffffffffffffffffffffffffffffffffffffffffffff03821115610fd957610fd8611123565b5b828201905092915050565b6000610fef8261104a565b9150610ffa8361104a565b92508282101561100d5761100c611123565b5b828203905092915050565b60006110238261102a565b9050919050565b600073ffffffffffffffffffffffffffffffffffffffff82169050919050565b6000819050919050565b600061105f8261104a565b9050919050565b82818337600083830152505050565b60005b83811015611093578082015181840152602081019050611078565b838111156110a2576000848401525b50505050565b600060028204905060018216806110c057607f821691505b602082108114156110d4576110d3611152565b5b50919050565b60006110e58261104a565b91507fffffffffffffffffffffffffffffffffffffffffffffffffffffffffffffffff82141561111857611117611123565b5b600182019050919050565b7f4e487b7100000000000000000000000000000000000000000000000000000000600052601160045260246000fd5b7f4e487b7100000000000000000000000000000000000000000000000000000000600052602260045260246000fd5b7f4e487b7100000000000000000000000000000000000000000000000000000000600052604160045260246000fd5b6000601f19601f8301169050919050565b6111ca8161104a565b81146111d557600080fd5b5056fea2646970667358221220b3c89712cd9a0e3c809836ef835b0124dc541135b7e08a3dcd6197b23e4b90b364736f6c63430008000033",
  "linkReferences": {},
  "deployedLinkReferences": {}
}