{
  "_format": "hh-sol-artifact-1",
  "contractName": "Booklist",
  "sourceName": "contracts/Booklist.sol",
  "abi": [
    {
      "anonymous": false,
      "inputs": [
        {
          "indexed": true,
          "internalType": "address",
          "name": "bookRecipient",
          "type": "address"
        },
        {
          "indexed": false,
          "internalType": "uint256",
          "name": "bookId",
          "type": "uint256"
        }
      ],
      "name": "AddBook",
      "type": "event"
    },
    {
      "anonymous": false,
      "inputs": [
        {
          "indexed": false,
          "internalType": "uint256",
          "name": "bookId",
          "type": "uint256"
        },
        {
          "indexed": false,
          "internalType": "bool",
          "name": "isCompleted",
          "type": "bool"
        }
      ],
      "name": "SetFinished",
      "type": "event"
    },
    {
      "inputs": [
        {
          "internalType": "string",
          "name": "name",
          "type": "string"
        },
        {
          "internalType": "uint256",
          "name": "year",
          "type": "uint256"
        },
        {
          "internalType": "string",
          "name": "author",
          "type": "string"
        },
        {
          "internalType": "bool",
          "name": "isCompleted",
          "type": "bool"
        }
      ],
      "name": "addBook",
      "outputs": [],
      "stateMutability": "nonpayable",
      "type": "function"
    },
    {
      "inputs": [
        {
          "internalType": "bool",
          "name": "finished",
          "type": "bool"
        }
      ],
      "name": "getBookList",
      "outputs": [
        {
          "components": [
            {
              "internalType": "uint256",
              "name": "id",
              "type": "uint256"
            },
            {
              "internalType": "string",
              "name": "name",
              "type": "string"
            },
            {
              "internalType": "uint256",
              "name": "year",
              "type": "uint256"
            },
            {
              "internalType": "string",
              "name": "author",
              "type": "string"
            },
            {
              "internalType": "bool",
              "name": "isCompleted",
              "type": "bool"
            }
          ],
          "internalType": "struct Booklist.Book[]",
          "name": "",
          "type": "tuple[]"
        }
      ],
      "stateMutability": "view",
      "type": "function"
    },
    {
      "inputs": [],
      "name": "getFinishedBook",
      "outputs": [
        {
          "components": [
            {
              "internalType": "uint256",
              "name": "id",
              "type": "uint256"
            },
            {
              "internalType": "string",
              "name": "name",
              "type": "string"
            },
            {
              "internalType": "uint256",
              "name": "year",
              "type": "uint256"
            },
            {
              "internalType": "string",
              "name": "author",
              "type": "string"
            },
            {
              "internalType": "bool",
              "name": "isCompleted",
              "type": "bool"
            }
          ],
          "internalType": "struct Booklist.Book[]",
          "name": "",
          "type": "tuple[]"
        }
      ],
      "stateMutability": "view",
      "type": "function"
    },
    {
      "inputs": [],
      "name": "getUnfinishedBook",
      "outputs": [
        {
          "components": [
            {
              "internalType": "uint256",
              "name": "id",
              "type": "uint256"
            },
            {
              "internalType": "string",
              "name": "name",
              "type": "string"
            },
            {
              "internalType": "uint256",
              "name": "year",
              "type": "uint256"
            },
            {
              "internalType": "string",
              "name": "author",
              "type": "string"
            },
            {
              "internalType": "bool",
              "name": "isCompleted",
              "type": "bool"
            }
          ],
          "internalType": "struct Booklist.Book[]",
          "name": "",
          "type": "tuple[]"
        }
      ],
      "stateMutability": "view",
      "type": "function"
    },
    {
      "inputs": [
        {
          "internalType": "uint256",
          "name": "bookId",
          "type": "uint256"
        },
        {
          "internalType": "bool",
          "name": "isCompleted",
          "type": "bool"
        }
      ],
      "name": "setCompleted",
      "outputs": [],
      "stateMutability": "nonpayable",
      "type": "function"
    }
  ],
  "bytecode": "0x608060405234801561001057600080fd5b5061111a806100206000396000f3fe608060405234801561001057600080fd5b50600436106100575760003560e01c80630cc2de1a1461005c5780635cb9f4a41461008c578063a8bbee8a146100a8578063b75b4e5a146100c6578063fb144612146100e4575b600080fd5b610076600480360381019061007191906107d5565b610100565b60405161008391906109f9565b60405180910390f35b6100a660048036038101906100a19190610a47565b6104af565b005b6100b06105ca565b6040516100bd91906109f9565b60405180910390f35b6100ce6105db565b6040516100db91906109f9565b60405180910390f35b6100fe60048036038101906100f99190610bbc565b6105ec565b005b60606000805b6000805490508110156101d7573373ffffffffffffffffffffffffffffffffffffffff166001600083815260200190815260200160002060009054906101000a900473ffffffffffffffffffffffffffffffffffffffff1673ffffffffffffffffffffffffffffffffffffffff161480156101b657508315156000828154811061019357610192610c5b565b5b906000526020600020906005020160040160009054906101000a900460ff161515145b156101ca5781806101c690610cb9565b9250505b8080600101915050610106565b5060008167ffffffffffffffff8111156101f4576101f3610a91565b5b60405190808252806020026020018201604052801561022d57816020015b61021a610758565b8152602001906001900390816102125790505b5090506000805b6000805490508110156104a3573373ffffffffffffffffffffffffffffffffffffffff166001600083815260200190815260200160002060009054906101000a900473ffffffffffffffffffffffffffffffffffffffff1673ffffffffffffffffffffffffffffffffffffffff161480156102e45750851515600082815481106102c1576102c0610c5b565b5b906000526020600020906005020160040160009054906101000a900460ff161515145b1561049657600081815481106102fd576102fc610c5b565b5b90600052602060002090600502016040518060a00160405290816000820154815260200160018201805461033090610d30565b80601f016020809104026020016040519081016040528092919081815260200182805461035c90610d30565b80156103a95780601f1061037e576101008083540402835291602001916103a9565b820191906000526020600020905b81548152906001019060200180831161038c57829003601f168201915b50505050508152602001600282015481526020016003820180546103cc90610d30565b80601f01602080910402602001604051908101604052809291908181526020018280546103f890610d30565b80156104455780601f1061041a57610100808354040283529160200191610445565b820191906000526020600020905b81548152906001019060200180831161042857829003601f168201915b505050505081526020016004820160009054906101000a900460ff16151515158152505083838151811061047c5761047b610c5b565b5b6020026020010181905250818061049290610cb9565b9250505b8080600101915050610234565b50819350505050919050565b3373ffffffffffffffffffffffffffffffffffffffff166001600084815260200190815260200160002060009054906101000a900473ffffffffffffffffffffffffffffffffffffffff1673ffffffffffffffffffffffffffffffffffffffff1614610550576040517f08c379a000000000000000000000000000000000000000000000000000000000815260040161054790610de4565b60405180910390fd5b806000838154811061056557610564610c5b565b5b906000526020600020906005020160040160006101000a81548160ff0219169083151502179055507fa4f349f92993cc89f62be8c4bead1bd7d76d2e9c4d05da59739c6e0dd75f042c82826040516105be929190610e22565b60405180910390a15050565b60606105d66001610100565b905090565b60606105e76000610100565b905090565b60008080549050905060006040518060a001604052808381526020018781526020018681526020018581526020018415158152509050600081908060018154018082558091505060019003906000526020600020906005020160009091909190915060008201518160000155602082015181600101908161066d9190610ff7565b5060408201518160020155606082015181600301908161068d9190610ff7565b5060808201518160040160006101000a81548160ff0219169083151502179055505050336001600084815260200190815260200160002060006101000a81548173ffffffffffffffffffffffffffffffffffffffff021916908373ffffffffffffffffffffffffffffffffffffffff1602179055503373ffffffffffffffffffffffffffffffffffffffff167f10545577c692a22f651e69221c47ad4418e40434b36f4e2411bc54007aa8cbb98360405161074891906110c9565b60405180910390a2505050505050565b6040518060a00160405280600081526020016060815260200160008152602001606081526020016000151581525090565b6000604051905090565b600080fd5b600080fd5b60008115159050919050565b6107b28161079d565b81146107bd57600080fd5b50565b6000813590506107cf816107a9565b92915050565b6000602082840312156107eb576107ea610793565b5b60006107f9848285016107c0565b91505092915050565b600081519050919050565b600082825260208201905092915050565b6000819050602082019050919050565b6000819050919050565b6108418161082e565b82525050565b600081519050919050565b600082825260208201905092915050565b60005b83811015610881578082015181840152602081019050610866565b60008484015250505050565b6000601f19601f8301169050919050565b60006108a982610847565b6108b38185610852565b93506108c3818560208601610863565b6108cc8161088d565b840191505092915050565b6108e08161079d565b82525050565b600060a0830160008301516108fe6000860182610838565b5060208301518482036020860152610916828261089e565b915050604083015161092b6040860182610838565b5060608301518482036060860152610943828261089e565b915050608083015161095860808601826108d7565b508091505092915050565b600061096f83836108e6565b905092915050565b6000602082019050919050565b600061098f82610802565b610999818561080d565b9350836020820285016109ab8561081e565b8060005b858110156109e757848403895281516109c88582610963565b94506109d383610977565b925060208a019950506001810190506109af565b50829750879550505050505092915050565b60006020820190508181036000830152610a138184610984565b905092915050565b610a248161082e565b8114610a2f57600080fd5b50565b600081359050610a4181610a1b565b92915050565b60008060408385031215610a5e57610a5d610793565b5b6000610a6c85828601610a32565b9250506020610a7d858286016107c0565b9150509250929050565b600080fd5b600080fd5b7f4e487b7100000000000000000000000000000000000000000000000000000000600052604160045260246000fd5b610ac98261088d565b810181811067ffffffffffffffff82111715610ae857610ae7610a91565b5b80604052505050565b6000610afb610789565b9050610b078282610ac0565b919050565b600067ffffffffffffffff821115610b2757610b26610a91565b5b610b308261088d565b9050602081019050919050565b82818337600083830152505050565b6000610b5f610b5a84610b0c565b610af1565b905082815260208101848484011115610b7b57610b7a610a8c565b5b610b86848285610b3d565b509392505050565b600082601f830112610ba357610ba2610a87565b5b8135610bb3848260208601610b4c565b91505092915050565b60008060008060808587031215610bd657610bd5610793565b5b600085013567ffffffffffffffff811115610bf457610bf3610798565b5b610c0087828801610b8e565b9450506020610c1187828801610a32565b935050604085013567ffffffffffffffff811115610c3257610c31610798565b5b610c3e87828801610b8e565b9250506060610c4f878288016107c0565b91505092959194509250565b7f4e487b7100000000000000000000000000000000000000000000000000000000600052603260045260246000fd5b7f4e487b7100000000000000000000000000000000000000000000000000000000600052601160045260246000fd5b6000610cc48261082e565b91507fffffffffffffffffffffffffffffffffffffffffffffffffffffffffffffffff8203610cf657610cf5610c8a565b5b600182019050919050565b7f4e487b7100000000000000000000000000000000000000000000000000000000600052602260045260246000fd5b60006002820490506001821680610d4857607f821691505b602082108103610d5b57610d5a610d01565b5b50919050565b600082825260208201905092915050565b7f43616c6c6572206973206e6f7420746865206f776e6572206f6620746865206260008201527f6f6f6b0000000000000000000000000000000000000000000000000000000000602082015250565b6000610dce602383610d61565b9150610dd982610d72565b604082019050919050565b60006020820190508181036000830152610dfd81610dc1565b9050919050565b610e0d8161082e565b82525050565b610e1c8161079d565b82525050565b6000604082019050610e376000830185610e04565b610e446020830184610e13565b9392505050565b60008190508160005260206000209050919050565b60006020601f8301049050919050565b600082821b905092915050565b600060088302610ead7fffffffffffffffffffffffffffffffffffffffffffffffffffffffffffffffff82610e70565b610eb78683610e70565b95508019841693508086168417925050509392505050565b6000819050919050565b6000610ef4610eef610eea8461082e565b610ecf565b61082e565b9050919050565b6000819050919050565b610f0e83610ed9565b610f22610f1a82610efb565b848454610e7d565b825550505050565b600090565b610f37610f2a565b610f42818484610f05565b505050565b5b81811015610f6657610f5b600082610f2f565b600181019050610f48565b5050565b601f821115610fab57610f7c81610e4b565b610f8584610e60565b81016020851015610f94578190505b610fa8610fa085610e60565b830182610f47565b50505b505050565b600082821c905092915050565b6000610fce60001984600802610fb0565b1980831691505092915050565b6000610fe78383610fbd565b9150826002028217905092915050565b61100082610847565b67ffffffffffffffff81111561101957611018610a91565b5b6110238254610d30565b61102e828285610f6a565b600060209050601f831160018114611061576000841561104f578287015190505b6110598582610fdb565b8655506110c1565b601f19841661106f86610e4b565b60005b8281101561109757848901518255600182019150602085019450602081019050611072565b868310156110b457848901516110b0601f891682610fbd565b8355505b6001600288020188555050505b505050505050565b60006020820190506110de6000830184610e04565b9291505056fea2646970667358221220a5c255d6fa5396469741e769d183c0fed09d68ea2c2def7035e37f161387baa964736f6c63430008180033",
  "linkReferences": {},
  "deployedLinkReferences": {}
}