{
  "_format": "hh-sol-artifact-1",
  "contractName": "Booklist",
  "sourceName": "contracts/Booklist.sol",
  "abi": [
    {
      "anonymous": false,
      "inputs": [
        {
          "indexed": false,
          "internalType": "address",
          "name": "bookRecipient",
          "type": "address"
        },
        {
          "indexed": false,
          "internalType": "uint256",
          "name": "bookId",
          "type": "uint256"
        }
      ],
      "name": "AddBook",
      "type": "event"
    },
    {
      "anonymous": false,
      "inputs": [
        {
          "indexed": false,
          "internalType": "uint256",
          "name": "bookId",
          "type": "uint256"
        },
        {
          "indexed": false,
          "internalType": "bool",
          "name": "isCompleted",
          "type": "bool"
        }
      ],
      "name": "SetFinished",
      "type": "event"
    },
    {
      "inputs": [
        {
          "internalType": "string",
          "name": "name",
          "type": "string"
        },
        {
          "internalType": "uint256",
          "name": "year",
          "type": "uint256"
        },
        {
          "internalType": "string",
          "name": "author",
          "type": "string"
        },
        {
          "internalType": "bool",
          "name": "isCompleted",
          "type": "bool"
        }
      ],
      "name": "addBook",
      "outputs": [],
      "stateMutability": "nonpayable",
      "type": "function"
    },
    {
      "inputs": [],
      "name": "getFinishedBook",
      "outputs": [
        {
          "components": [
            {
              "internalType": "uint256",
              "name": "id",
              "type": "uint256"
            },
            {
              "internalType": "string",
              "name": "name",
              "type": "string"
            },
            {
              "internalType": "uint256",
              "name": "year",
              "type": "uint256"
            },
            {
              "internalType": "string",
              "name": "author",
              "type": "string"
            },
            {
              "internalType": "bool",
              "name": "isCompleted",
              "type": "bool"
            }
          ],
          "internalType": "struct Booklist.Book[]",
          "name": "",
          "type": "tuple[]"
        }
      ],
      "stateMutability": "view",
      "type": "function"
    },
    {
      "inputs": [],
      "name": "getUnfinishedBook",
      "outputs": [
        {
          "components": [
            {
              "internalType": "uint256",
              "name": "id",
              "type": "uint256"
            },
            {
              "internalType": "string",
              "name": "name",
              "type": "string"
            },
            {
              "internalType": "uint256",
              "name": "year",
              "type": "uint256"
            },
            {
              "internalType": "string",
              "name": "author",
              "type": "string"
            },
            {
              "internalType": "bool",
              "name": "isCompleted",
              "type": "bool"
            }
          ],
          "internalType": "struct Booklist.Book[]",
          "name": "",
          "type": "tuple[]"
        }
      ],
      "stateMutability": "view",
      "type": "function"
    },
    {
      "inputs": [
        {
          "internalType": "uint256",
          "name": "bookId",
          "type": "uint256"
        },
        {
          "internalType": "bool",
          "name": "isCompleted",
          "type": "bool"
        }
      ],
      "name": "setCompleted",
      "outputs": [],
      "stateMutability": "nonpayable",
      "type": "function"
    }
  ],
  "bytecode": "0x608060405234801561001057600080fd5b506110be806100206000396000f3fe608060405234801561001057600080fd5b506004361061004c5760003560e01c80635cb9f4a414610051578063a8bbee8a1461006d578063b75b4e5a1461008b578063fb144612146100a9575b600080fd5b61006b6004803603810190610066919061078d565b6100c5565b005b6100756101e0565b60405161008291906109ba565b60405180910390f35b6100936101f1565b6040516100a091906109ba565b60405180910390f35b6100c360048036038101906100be9190610b11565b610202565b005b3373ffffffffffffffffffffffffffffffffffffffff166001600084815260200190815260200160002060009054906101000a900473ffffffffffffffffffffffffffffffffffffffff1673ffffffffffffffffffffffffffffffffffffffff1614610166576040517f08c379a000000000000000000000000000000000000000000000000000000000815260040161015d90610c33565b60405180910390fd5b806000838154811061017b5761017a610c53565b5b906000526020600020906005020160040160006101000a81548160ff0219169083151502179055507fa4f349f92993cc89f62be8c4bead1bd7d76d2e9c4d05da59739c6e0dd75f042c82826040516101d4929190610ca0565b60405180910390a15050565b60606101ec6001610353565b905090565b60606101fd6000610353565b905090565b60008080549050905060006040518060a00160405280838152602001878152602001868152602001858152602001841515815250908060018154018082558091505060019003906000526020600020906005020160009091909190915060008201518160000155602082015181600101908161027e9190610ed5565b5060408201518160020155606082015181600301908161029e9190610ed5565b5060808201518160040160006101000a81548160ff0219169083151502179055505050336001600083815260200190815260200160002060006101000a81548173ffffffffffffffffffffffffffffffffffffffff021916908373ffffffffffffffffffffffffffffffffffffffff1602179055507f10545577c692a22f651e69221c47ad4418e40434b36f4e2411bc54007aa8cbb93382604051610344929190610fe8565b60405180910390a15050505050565b60606000808054905067ffffffffffffffff811115610375576103746109e6565b5b6040519080825280602002602001820160405280156103ae57816020015b61039b6106da565b8152602001906001900390816103935790505b5090506000805b600080549050811015610624573373ffffffffffffffffffffffffffffffffffffffff166001600083815260200190815260200160002060009054906101000a900473ffffffffffffffffffffffffffffffffffffffff1673ffffffffffffffffffffffffffffffffffffffff1614801561046557508415156000828154811061044257610441610c53565b5b906000526020600020906005020160040160009054906101000a900460ff161515145b15610617576000818154811061047e5761047d610c53565b5b90600052602060002090600502016040518060a0016040529081600082015481526020016001820180546104b190610cf8565b80601f01602080910402602001604051908101604052809291908181526020018280546104dd90610cf8565b801561052a5780601f106104ff5761010080835404028352916020019161052a565b820191906000526020600020905b81548152906001019060200180831161050d57829003601f168201915b505050505081526020016002820154815260200160038201805461054d90610cf8565b80601f016020809104026020016040519081016040528092919081815260200182805461057990610cf8565b80156105c65780601f1061059b576101008083540402835291602001916105c6565b820191906000526020600020905b8154815290600101906020018083116105a957829003601f168201915b505050505081526020016004820160009054906101000a900460ff1615151515815250508383815181106105fd576105fc610c53565b5b6020026020010181905250818061061390611040565b9250505b80806001019150506103b5565b5060008167ffffffffffffffff811115610641576106406109e6565b5b60405190808252806020026020018201604052801561067a57816020015b6106676106da565b81526020019060019003908161065f5790505b50905060005b828110156106ce5783818151811061069b5761069a610c53565b5b60200260200101518282815181106106b6576106b5610c53565b5b60200260200101819052508080600101915050610680565b50809350505050919050565b6040518060a00160405280600081526020016060815260200160008152602001606081526020016000151581525090565b6000604051905090565b600080fd5b600080fd5b6000819050919050565b6107328161071f565b811461073d57600080fd5b50565b60008135905061074f81610729565b92915050565b60008115159050919050565b61076a81610755565b811461077557600080fd5b50565b60008135905061078781610761565b92915050565b600080604083850312156107a4576107a3610715565b5b60006107b285828601610740565b92505060206107c385828601610778565b9150509250929050565b600081519050919050565b600082825260208201905092915050565b6000819050602082019050919050565b6108028161071f565b82525050565b600081519050919050565b600082825260208201905092915050565b60005b83811015610842578082015181840152602081019050610827565b60008484015250505050565b6000601f19601f8301169050919050565b600061086a82610808565b6108748185610813565b9350610884818560208601610824565b61088d8161084e565b840191505092915050565b6108a181610755565b82525050565b600060a0830160008301516108bf60008601826107f9565b50602083015184820360208601526108d7828261085f565b91505060408301516108ec60408601826107f9565b5060608301518482036060860152610904828261085f565b91505060808301516109196080860182610898565b508091505092915050565b600061093083836108a7565b905092915050565b6000602082019050919050565b6000610950826107cd565b61095a81856107d8565b93508360208202850161096c856107e9565b8060005b858110156109a857848403895281516109898582610924565b945061099483610938565b925060208a01995050600181019050610970565b50829750879550505050505092915050565b600060208201905081810360008301526109d48184610945565b905092915050565b600080fd5b600080fd5b7f4e487b7100000000000000000000000000000000000000000000000000000000600052604160045260246000fd5b610a1e8261084e565b810181811067ffffffffffffffff82111715610a3d57610a3c6109e6565b5b80604052505050565b6000610a5061070b565b9050610a5c8282610a15565b919050565b600067ffffffffffffffff821115610a7c57610a7b6109e6565b5b610a858261084e565b9050602081019050919050565b82818337600083830152505050565b6000610ab4610aaf84610a61565b610a46565b905082815260208101848484011115610ad057610acf6109e1565b5b610adb848285610a92565b509392505050565b600082601f830112610af857610af76109dc565b5b8135610b08848260208601610aa1565b91505092915050565b60008060008060808587031215610b2b57610b2a610715565b5b600085013567ffffffffffffffff811115610b4957610b4861071a565b5b610b5587828801610ae3565b9450506020610b6687828801610740565b935050604085013567ffffffffffffffff811115610b8757610b8661071a565b5b610b9387828801610ae3565b9250506060610ba487828801610778565b91505092959194509250565b600082825260208201905092915050565b7f43616c6c6572206973206e6f7420746865206f776e6572206f6620746865206260008201527f6f6f6b0000000000000000000000000000000000000000000000000000000000602082015250565b6000610c1d602383610bb0565b9150610c2882610bc1565b604082019050919050565b60006020820190508181036000830152610c4c81610c10565b9050919050565b7f4e487b7100000000000000000000000000000000000000000000000000000000600052603260045260246000fd5b610c8b8161071f565b82525050565b610c9a81610755565b82525050565b6000604082019050610cb56000830185610c82565b610cc26020830184610c91565b9392505050565b7f4e487b7100000000000000000000000000000000000000000000000000000000600052602260045260246000fd5b60006002820490506001821680610d1057607f821691505b602082108103610d2357610d22610cc9565b5b50919050565b60008190508160005260206000209050919050565b60006020601f8301049050919050565b600082821b905092915050565b600060088302610d8b7fffffffffffffffffffffffffffffffffffffffffffffffffffffffffffffffff82610d4e565b610d958683610d4e565b95508019841693508086168417925050509392505050565b6000819050919050565b6000610dd2610dcd610dc88461071f565b610dad565b61071f565b9050919050565b6000819050919050565b610dec83610db7565b610e00610df882610dd9565b848454610d5b565b825550505050565b600090565b610e15610e08565b610e20818484610de3565b505050565b5b81811015610e4457610e39600082610e0d565b600181019050610e26565b5050565b601f821115610e8957610e5a81610d29565b610e6384610d3e565b81016020851015610e72578190505b610e86610e7e85610d3e565b830182610e25565b50505b505050565b600082821c905092915050565b6000610eac60001984600802610e8e565b1980831691505092915050565b6000610ec58383610e9b565b9150826002028217905092915050565b610ede82610808565b67ffffffffffffffff811115610ef757610ef66109e6565b5b610f018254610cf8565b610f0c828285610e48565b600060209050601f831160018114610f3f5760008415610f2d578287015190505b610f378582610eb9565b865550610f9f565b601f198416610f4d86610d29565b60005b82811015610f7557848901518255600182019150602085019450602081019050610f50565b86831015610f925784890151610f8e601f891682610e9b565b8355505b6001600288020188555050505b505050505050565b600073ffffffffffffffffffffffffffffffffffffffff82169050919050565b6000610fd282610fa7565b9050919050565b610fe281610fc7565b82525050565b6000604082019050610ffd6000830185610fd9565b61100a6020830184610c82565b9392505050565b7f4e487b7100000000000000000000000000000000000000000000000000000000600052601160045260246000fd5b600061104b8261071f565b91507fffffffffffffffffffffffffffffffffffffffffffffffffffffffffffffffff820361107d5761107c611011565b5b60018201905091905056fea26469706673582212207e55f7e6ddff07f649cfff49777a56ef153f23f618007e47e451d8b9cdf4c8ea64736f6c63430008180033",
  "linkReferences": {},
  "deployedLinkReferences": {}
}